:100000000C9435000C945D000C945D000C945D0024
:100010000C945D000C945D000C945D000C945D00EC
:100020000C945D000C945D000C945D000C945D00DC
:100030000C945D000C945D000C945D000C945D00CC
:100040000C9462030C945D000C944E040C949C047C
:100050000C945D000C945D000C945D000C945D00AC
:100060000C945D000C945D00080611241FBECFEFB8
:10007000D8E0DEBFCDBF11E0A0E0B1E0E6ECFEE0ED
:1000800002C005900D92AA31B107D9F711E0AAE19B
:10009000B1E001C01D92A33DB107E1F710E0CAE64F
:1000A000D0E004C02297FE010E942607C836D1077F
:1000B000C9F70E943E040C9461070C940000A0E074
:1000C000B0E0E5E6F0E00C943207EC01A880B980DE
:1000D000CA80DB80A114B104C104D10441F484E2DC
:1000E000A82E89EDB82E8BE5C82E87E0D82EC60144
:1000F000B5012DE133EF41E050E00E94090727EA06
:1001000031E440E050E00E94C8067B018C01C6014A
:10011000B5012DE133EF41E050E00E940907CA012B
:10012000B9012CEE34EF4FEF5FEF0E94C8066E0D61
:100130007F1D801F911F97FF04C061507040804059
:100140009048688379838A839B839B01AC015F77A6
:10015000B901CA01CDB7DEB7EAE00C944E070E94A0
:100160005F00089580E091E00E945F000895609331
:10017000000170930101809302019093030108959F
:10018000FB01DC0102C001900D9241505040D8F7B4
:1001900008958F929F92AF92BF92CF92DF92EF928B
:1001A000FF920F931F93CF93DF934B01DA011196C8
:1001B0001C921E925C01EC0140E050E00CC0E99101
:1001C000F991818190E00296280F391F11963C9396
:1001D0002E934F5F5F4F2D913C9111974815590514
:1001E00074F3C9010E942D027C01CC24DD24C0E0FF
:1001F000D0E025C0D5010D911D915D01F701EC0FF7
:10020000FD1FD8018C91808311964C9111974183E9
:10021000229697012C0F3D1F229712966C911297F0
:1002200013967C91C90150E00E94C000F8018181C1
:1002300090E00296C80FD91F0894C11CD11CC814A5
:10024000D904C4F2C701DF91CF911F910F91FF90A4
:10025000EF90DF90CF90BF90AF909F908F900895D8
:10026000BF92CF92DF92EF92FF920F931F93D82EFF
:10027000F62EC42EB52E84E090E00E942D02E92EC9
:10028000082F192F8F2D90E00E942D02F8018283F4
:100290009383D082F1826C2D7B2D4F2D50E00E94F4
:1002A000C000802F9E2D1F910F91FF90EF90DF9047
:1002B000CF90BF9008950F931F938C01FC01828112
:1002C00093810E94CA02C8010E94CA021F910F9125
:1002D00008958DEA91E040E051EE60E070E00E9408
:1002E000D7040895CF92DF92EF92FF920F931F935E
:1002F000DF93CF93CDB7DEB727970FB6F894DEBF65
:100300000FBECDBF8DEA91E00E948F056C010E9467
:100310002D0280931A0190931B01EE24FF240CC040
:100320008F010E0D1F1D8DEA91E00E948F05F801CF
:1003300080830894E11CF11CE0911A01F0911B01EB
:10034000EC14FD046CF3808161813296AF010E9450
:1003500030018C0180911A0190911B010E94CA0208
:10036000C8010E945B0168EC70E080E090E00E94B0
:10037000AA0383E0E82EF12CEC0EFD1E85E0F701C8
:1003800011928A95E9F780EA8C8381EA8E8361EB8A
:1003900070E080E090E027EB30E040E050E00E9429
:1003A00080066B8360E070E080E090E020E031E068
:1003B00040E050E00E9480066D8360E070E080E0E5
:1003C00090E020E031E040E050E00E9480066F8342
:1003D00086E090E00E942D028C0180E161E0A7019F
:1003E0000E943001F8019183808381E162E0AE01D7
:1003F0004C5F5F4F0E943001F8019383828381E15B
:1004000062E0AE014A5F5F4F0E943001F8019583C0
:100410008483C80163E070E0AE014F5F5F4F0E94CC
:10042000C9008C018DEA91E069810E94C80549816B
:100430005A818DEA91E0B8010E949E0627960FB678
:10044000F894DEBF0FBECDBFCF91DF911F910F910A
:10045000FF90EF90DF90CF9008950F931F93CF936D
:10046000DF93BC018230910510F462E070E0E0910E
:10047000D101F091D201A0E0B0E040E050E024C012
:100480008081918186179707D0F08617970771F4BE
:1004900082819381109729F013969C938E931297E3
:1004A0002CC09093D2018093D10127C041155105F2
:1004B00019F08417950718F4EF018D01AC01DF01E5
:1004C000828193819C01F9013097D1F64115510544
:1004D000F9F0CA01861B970B8430910580F48A815C
:1004E0009B810115110521F0F8019383828304C0DB
:1004F0009093D2018093D101FE01329645C0FE0156
:10050000E80FF91F619371930297998388833CC028
:100510008091CF019091D001892B41F48091060107
:10052000909107019093D0018093CF0140910801F1
:10053000509109014115510541F44DB75EB78091C5
:10054000040190910501481B590B2091CF01309176
:10055000D00124173507B0F4CA01821B930B86170C
:10056000970780F0AB014E5F5F4F8417950750F0FF
:10057000420F531F5093D0014093CF01F901619373
:10058000719302C0E0E0F0E0CF01DF91CF911F91C5
:100590000F910895CF93DF939C01009709F48FC0CA
:1005A000EC0122971B821A826091D1017091D201D5
:1005B0006115710581F488819981820F931F2091C3
:1005C000CF013091D0012817390739F5D093D001E8
:1005D000C093CF0174C0DB0140E050E0AC17BD0711
:1005E00008F1BB83AA83FE0121913191E20FF31F31
:1005F000AE17BF0779F48D919C911197280F391F81
:100600002E5F3F4F3983288312968D919C911397CB
:100610009B838A834115510571F4D093D201C09315
:10062000D1014DC012968D919C911397AD01009709
:1006300011F0DC01D3CFDA011396DC93CE9312973D
:10064000FA0121913191E20FF31FCE17DF0769F410
:1006500088819981280F391F2E5F3F4FFA0131831E
:1006600020838A819B8193838283E0E0F0E0DB0139
:1006700012968D919C911397009719F0BC01FD0182
:10068000F6CFAB014E5F5F4FDB018D919C91840FE4
:10069000951F2091CF013091D0012817390779F4A7
:1006A000309729F41092D2011092D10102C0138226
:1006B0001282425050405093D0014093CF01DF91BD
:1006C000CF9108951F920F920FB60F9211242F937E
:1006D0003F938F939F93AF93BF938091200190910D
:1006E0002101A0912201B0912301309124010196B2
:1006F000A11DB11D232F2D5F2D3720F02D57019601
:10070000A11DB11D2093240180932001909321010C
:10071000A0932201B093230180911C0190911D01AF
:10072000A0911E01B0911F010196A11DB11D8093E2
:100730001C0190931D01A0931E01B0931F01BF9156
:10074000AF919F918F913F912F910F900FBE0F907E
:100750001F9018959B01AC017FB7F89480911C0104
:1007600090911D01A0911E01B0911F0166B5A89B3B
:1007700005C06F3F19F00196A11DB11D7FBFBA2FB3
:10078000A92F982F8827860F911DA11DB11D62E00A
:10079000880F991FAA1FBB1F6A95D1F7BC012DC0F6
:1007A000FFB7F89480911C0190911D01A0911E014A
:1007B000B0911F01E6B5A89B05C0EF3F19F0019667
:1007C000A11DB11DFFBFBA2FA92F982F88278E0F0B
:1007D000911DA11DB11DE2E0880F991FAA1FBB1F2B
:1007E000EA95D1F7861B970B885E9340C8F221509B
:1007F00030404040504068517C4F21153105410543
:10080000510571F60895789484B5826084BD84B5ED
:10081000816084BD85B5826085BD85B5816085BDFB
:10082000EEE6F0E0808181608083E1E8F0E0108214
:10083000808182608083808181608083E0E8F0E055
:10084000808181608083E1EBF0E08081846080833F
:10085000E0EBF0E0808181608083EAE7F0E0808176
:1008600084608083808182608083808181608083D6
:100870008081806880831092C1000895CF93DF93B8
:100880000E9403040E946901C9E8D4E00E94720139
:100890002097E1F30E948904F9CF08951F920F92E7
:1008A0000FB60F9211242F933F934F938F939F93E3
:1008B000EF93FF938091C00082FD1DC04091C60060
:1008C00020916501309166012F5F3F4F2F7330708B
:1008D00080916701909168012817390771F0E091C4
:1008E0006501F0916601EB5DFE4F40833093660138
:1008F0002093650102C08091C600FF91EF919F9106
:100900008F914F913F912F910F900FBE0F901F909D
:100910001895E091B901F091BA01E05CFF4F819127
:10092000919120813181821B930B8F739070892B61
:1009300011F00E944D0408951F920F920FB60F926E
:1009400011242F933F938F939F93EF93FF932091C5
:10095000A9013091AA018091AB019091AC012817B7
:10096000390731F48091C1008F7D8093C10014C09C
:10097000E091AB01F091AC01E759FE4F20818091ED
:10098000AB019091AC0101968F7390709093AC0184
:100990008093AB012093C600FF91EF919F918F91BF
:1009A0003F912F910F900FBE0F901F901895AF920F
:1009B000BF92DF92EF92FF920F931F93CF93DF933B
:1009C000EC017A018B01DD24403081EE580780E094
:1009D000680780E0780711F0DD24D39491E0A92E18
:1009E000B12CEC89FD89DD2069F0C50108A002C0A9
:1009F000880F991F0A94E2F7808360E079E08DE325
:100A000090E005C0108260E874E88EE190E0A801F3
:100A100097010E94E70621503040404050405695D3
:100A200047953795279580E12030380720F0DD2065
:100A300011F0DD24D6CFE889F9893083EA89FB8972
:100A4000208319A2EE89FF89408121E030E0C901AD
:100A50000C8C02C0880F991F0A94E2F7482B408340
:100A6000EE89FF894081C9010D8C02C0880F991F52
:100A70000A94E2F7482B4083EE89FF894081C9013F
:100A80000E8C02C0880F991F0A94E2F7482B40830E
:100A9000EE89FF8980810F8C02C0220F331F0A94D8
:100AA000E2F7209528232083DF91CF911F910F91AA
:100AB000FF90EF90DF90BF90AF900895DC011C96FF
:100AC000ED91FC911D97E05CFF4F21913191808168
:100AD0009181281B390B2F733070C9010895DC01F7
:100AE0001C96ED91FC911D97E05CFF4F20813181B8
:100AF000E054F040DF01AE5BBF4F8D919C911197A8
:100B00002817390719F42FEF3FEF07C08D919C91FB
:100B1000E80FF91F8081282F30E0C9010895DC011A
:100B20001C96ED91FC911D97E05CFF4F2081318177
:100B3000E054F040DF01AE5BBF4F8D919C91119767
:100B40002817390719F42FEF3FEF10C08D919C91B2
:100B50001197E80FF91F20818D919C9111970196B3
:100B60008F73907011969C938E9330E0C901089515
:100B7000DC0191968C919197882339F05496ED91F0
:100B8000FC915597808186FFF9CF91961C9208952C
:100B9000CF93DF93EC01EE85FF85E05CFF4F208172
:100BA0003181E054F0402F5F3F4F2F733070DF01F1
:100BB000AE5BBF4F8D919C91119728173907D1F3E8
:100BC000E05CFF4F80819181E054F040E80FF91F15
:100BD0006083EE85FF85E05CFF4F31832083EE89E3
:100BE000FF89208181E090E00F8C02C0880F991F5F
:100BF0000A94E2F7282B208381E089A3EC89FD8900
:100C000080818064808381E090E0DF91CF910895BE
:100C10001092B0011092AF0188EE93E0A0E0B0E036
:100C20008093B1019093B201A093B301B093B4014A
:100C30008EE091E09093AE018093AD0185E291E06A
:100C40009093BA018093B90189E691E09093BC0139
:100C50008093BB0185EC90E09093BE018093BD0131
:100C600084EC90E09093C0018093BF0180EC90E011
:100C70009093C2018093C10181EC90E09093C401F4
:100C80008093C30182EC90E09093C6018093C501EC
:100C900086EC90E09093C8018093C70184E0809334
:100CA000C90183E08093CA0187E08093CB0185E08E
:100CB0008093CC0181E08093CD010895EF92FF9263
:100CC0000F931F937B018C016115710581059105BF
:100CD00029F420E030E040E050E00BC00E94B20078
:100CE000A80197010E940907AC01CB01DA019C0120
:100CF000AD01B901CA011F910F91FF90EF900895C6
:100D0000EF92FF920F931F937B018C016217730781
:100D10008407950764F4261B370B480B590BCA014F
:100D2000B9010E945E06E60EF71E081F191FB701E3
:100D3000C8011F910F91FF90EF900895CF92DF921D
:100D4000EF92FF920F931F93CF93DF937C016B0180
:100D50008A01C0E0D0E00FC0D6016D916D01D701CE
:100D6000ED91FC910190F081E02DC7010995C80F2C
:100D7000D91F015010400115110571F7CE01DF9107
:100D8000CF911F910F91FF90EF90DF90CF9008953A
:100D9000629FD001739FF001829FE00DF11D649F5F
:100DA000E00DF11D929FF00D839FF00D749FF00DEB
:100DB000659FF00D9927729FB00DE11DF91F639F8C
:100DC000B00DE11DF91FBD01CF0111240895A1E26D
:100DD0001A2EAA1BBB1BFD010DC0AA1FBB1FEE1FB5
:100DE000FF1FA217B307E407F50720F0A21BB30B00
:100DF000E40BF50B661F771F881F991F1A9469F77C
:100E000060957095809590959B01AC01BD01CF01D7
:100E1000089597FB092E05260ED057FD04D0D7DF85
:100E20000AD0001C38F450954095309521953F4FDD
:100E30004F4F5F4F0895F6F79095809570956195A7
:100E40007F4F8F4F9F4F0895EE0FFF1F0590F49136
:100E5000E02D09942F923F924F925F926F927F9272
:100E60008F929F92AF92BF92CF92DF92EF92FF92BA
:100E70000F931F93CF93DF93CDB7DEB7CA1BDB0B66
:100E80000FB6F894DEBF0FBECDBF09942A8839880B
:100E900048885F846E847D848C849B84AA84B98412
:100EA000C884DF80EE80FD800C811B81AA81B9811E
:100EB000CE0FD11D0FB6F894DEBF0FBECDBFED0132
:060EC0000895F894FFCF35
:100EC600010000008000D301000000000000C805FA
:0A0ED6009E065E058F056F05B80546
:00000001FF
